:100000000C9446000C9465000C9465000C946500FB
:100010000C9465000C9465000C9465000C946500CC
:100020000C9465000C9465000C9465000C946500BC
:100030000C9465000C941E020C9465000C946500F1
:100040000C9465000C9465000C9465000C9465009C
:100050000C9465000C9465000C9465000C9465008C
:100060000C9465000C9465000C9465000C9465007C
:100070000C9465000C9465000C9465000C9465006C
:100080000C9465000C9465000C94650011241FBE4F
:10009000CFEFD0E4DEBFCDBF11E0A0E0B1E0EAE5F4
:1000A000FCE000E00BBF02C007900D92A831B10741
:1000B000D9F721E0A8E1B1E001C01D92AF34B20749
:1000C000E1F70E946C040C942B060C940000CF9373
:1000D000DF9300D01F92CDB7DEB789836A834B834D
:1000E0008B81882371F08A81282F30E081E090E0B5
:1000F00002C0880F991F2A95E2F7982F8981892BD2
:100100000EC08A81282F30E081E090E002C0880F85
:10011000991F2A95E2F7982F9095898189230F904E
:100120000F900F90DF91CF910895CF93DF9300D080
:10013000CDB7DEB789836A838A81282F30E081E0DA
:1001400090E002C0880F991F2A95E2F7982F8981C5
:1001500089230F900F90DF91CF9108950F931F93F4
:10016000CF93DF93CDB7DEB708E210E040E064E064
:100170008FEF0E946700F8018083000086E290E024
:10018000FC018081809560E00E949500882311F039
:1001900081E3D3C086E290E0FC018081809561E03C
:1001A0000E949500882311F084E3C7C086E290E0A6
:1001B000FC018081809562E00E949500882311F007
:1001C00087E3BBC086E290E0FC018081809563E01C
:1001D0000E949500882311F08AE2AFC008E210E087
:1001E00040E065E08FEF0E946700F8018083000027
:1001F00086E290E0FC018081809560E00E9495009D
:10020000882311F082E399C086E290E0FC018081AE
:10021000809561E00E949500882311F085E38DC0F0
:1002200086E290E0FC018081809562E00E9495006A
:10023000882311F088E381C086E290E0FC01808190
:10024000809563E00E949500882311F080E375C0DB
:1002500008E210E040E066E08FEF0E946700F801DE
:100260008083000086E290E0FC018081809560E060
:100270000E949500882311F083E35FC086E290E03E
:10028000FC018081809561E00E949500882311F037
:1002900086E353C086E290E0FC018081809562E0B5
:1002A0000E949500882311F089E347C086E290E020
:1002B000FC018081809563E00E949500882311F005
:1002C00083E23BC008E210E040E067E08FEF0E946D
:1002D0006700F8018083000086E290E0FC018081E5
:1002E000809560E00E949500882311F081E425C08C
:1002F00086E290E0FC018081809561E00E9495009B
:10030000882311F082E419C086E290E0FC0180812C
:10031000809562E00E949500882311F083E40DC06F
:1003200086E290E0FC018081809563E00E94950068
:10033000882311F084E401C080E0DF91CF911F9108
:100340000F910895CF93DF9300D000D0CDB7DEB7E3
:1003500069837A838B839C8389819A81AB81BC81F9
:100360008093000190930101A0930201B0930301D7
:100370008091000190910101A0910201B0910301CF
:100380008093190190931A01A0931B01B0931C0153
:1003900000000F900F900F900F90DF91CF91089574
:1003A000CF93DF93CDB7DEB781E890E02BE0FC017F
:1003B000208388E890E02DE730E0FC013183208342
:1003C0008FE690E022E0FC01208384E890E0FC01CD
:1003D000118210828091000190910101A09102018F
:1003E000B09103018093190190931A01A0931B010E
:1003F000B0931C018FE590E02FE530E0F9012081FA
:100400002068FC0120830000DF91CF910895CF93F5
:10041000DF93CDB7DEB781E890E0FC0110820000E9
:10042000DF91CF910895CF93DF93CDB7DEB781E011
:10043000809318010000DF91CF9108951F920F92D1
:1004400000905F000F92112400905B000F922F9399
:100450003F934F935F936F937F938F939F93AF934C
:10046000BF93EF93FF93CF93DF93CDB7DEB7809128
:10047000190190911A01A0911B01B0911C010197E3
:10048000A109B1098093190190931A01A0931B014E
:10049000B0931C018091190190911A01A0911B0148
:1004A000B0911C01892B8A2B8B2B91F40E94130293
:1004B0008091000190910101A0910201B09103018E
:1004C0008093190190931A01A0931B01B0931C0112
:1004D0000000DF91CF91FF91EF91BF91AF919F917C
:1004E0008F917F916F915F914F913F912F910F90DD
:1004F00000925B000F9000925F000F901F90189584
:10050000CF93DF9300D01F92CDB7DEB789837B8373
:100510006A8389818A3031F48A819B81BC018DE0B4
:100520000E94800280EC90E0FC018081882F90E0A6
:1005300080729927892BB1F386EC90E02981FC0128
:10054000208380E090E00F900F900F90DF91CF918B
:100550000895CF93DF9300D0CDB7DEB79A83898318
:100560000E94AE0080931F0189819A81823091059B
:1005700009F459C0833091052CF4009779F0019764
:1005800041F1F7C08430910509F4A1C08430910590
:100590000CF473C0059709F4C3C0EBC080911F0130
:1005A000833231F41A82198281E080931E01E4C003
:1005B00080911E01813009F0DFC080911F018823E6
:1005C00009F0DAC081E090E09A83898310921E01DD
:1005D000D3C080911F01813341F481E090E09A8380
:1005E000898381E080931E01C9C080911E01813002
:1005F00059F480911F01882339F482E090E09A83B6
:10060000898310921E01BAC080911F01813309F4C1
:10061000B5C080911F01882309F4B0C01A821982E5
:1006200010921E01ABC080911F01823341F482E021
:1006300090E09A83898381E080931E01A1C080911C
:100640001E01813059F480911F01882339F483E021
:1006500090E09A83898310921E0192C080911F01BD
:10066000823309F48DC080911F01882309F488C06A
:100670001A82198210921E0183C080911F01833358
:1006800041F483E090E09A83898381E080931E01A6
:1006900079C080911E01813059F480911F01882317
:1006A00039F484E090E09A83898310921E016AC035
:1006B00080911F01833309F465C080911F01882355
:1006C00009F460C01A82198210921E015BC08091E9
:1006D0001F01843341F484E090E09A83898381E0B0
:1006E00080931E0151C080911E01813059F4809188
:1006F0001F01882339F485E090E09A838983109262
:100700001E0142C080911F01843309F43DC08091D5
:100710001F018823C9F11A82198210921E0134C068
:1007200080911F01853341F485E090E09A838983AD
:1007300081E080931E012AC080911E01813061F406
:1007400080911F01882341F41A82198281E08093ED
:100750001D0110921E011AC080911F018533B1F056
:1007600080911F01882391F01A82198210921E0134
:100770000DC01A8219820BC0000009C0000007C01A
:10078000000005C0000003C0000001C00000000020
:1007900089819A810F900F90DF91CF910895CF9327
:1007A000DF9300D0CDB7DEB79A83898389819A81A0
:1007B000892B19F41A82198203C01A821982000047
:1007C00089819A81892B79F480911D01882331F0E8
:1007D00085E290E021E0FC01208304C085E290E006
:1007E000FC011082000089819A810F900F90DF91A7
:1007F000CF910895CF93DF9300D0CDB7DEB79A8322
:10080000898389819A81892B19F41A82198203C0FC
:100810001A821982000089819A81892B49F483E226
:1008200090E0FC018081882314F010921D010000EB
:1008300089819A810F900F90DF91CF910895CF9386
:10084000DF93CDB7DEB72C970FB6F894DEBF0FBE9F
:10085000CDBF6D837E838F83988729873A874B87A7
:100860005C878D819E81AF81B88529853A854B85CE
:100870005C85BC01CD010E940906DC01CB018983A6
:100880009A83AB83BC8389819A81AB81BC81892B9C
:100890008A2B8B2B29F489859A85AB85BC8511C061
:1008A00089859A85AB85BC858D839E83AF83B88708
:1008B00089819A81AB81BC8189879A87AB87BC8704
:1008C000D0CFBC01CD012C960FB6F894DEBF0FBE81
:1008D000CDBFDF91CF9108950F931F93CF93DF93F7
:1008E000CDB7DEB72F970FB6F894DEBF0FBECDBFE2
:1008F00081E290E0FC01108282E290E02FEFFC01A7
:10090000208384E290E02FE7FC01208385E290E0E1
:1009100020E8FC01208387E290E020EFFC012083A7
:1009200088E290E02FE0FC01208386E0E2E1F1E044
:10093000DE011A9601900D928A95E1F783E090E02E
:1009400098878F838FEF89878A859B852985FC010E
:1009500020832A853B8582E390E0A0E0B0E0F901A6
:1009600081839283A383B4832A853B858A859B8573
:10097000FC0181819281A381B481F90185839683F1
:10098000A783B0878A859B8529EA32E0FC013287FC
:1009900021878C859D852985FC0120832C853D85BB
:1009A00082E390E0A0E0B0E0F90181839283A38329
:1009B000B4832C853D858C859D85FC018181928148
:1009C000A381B481F90185839683A783B0878C8541
:1009D0009D852FEC33E0FC01328721878E859F8532
:1009E0002985FC0120832E853F8582E390E0A0E0ED
:1009F000B0E0F90181839283A383B4832E853F8580
:100A000082E390E0A0E0B0E0F90185839683A783BC
:100A1000B0878E859F852AEF33E0FC0132872187DE
:100A20008A859B85FC0181819281A381B4818B831E
:100A30009C83AD83BE8381E090E09A83898325C047
:100A400089819A81880F991F9E012F5F3F4F820FE6
:100A5000931F0996FC0180819181FC0121813281E3
:100A6000438154818B819C81AD81BE81BC01CD01CC
:100A70000E941F04DC01CB018B839C83AD83BE836A
:100A800089819A8101969A83898329813A818F810C
:100A9000988528173907A0F28B819C81AD81BE8192
:100AA000BC01CD010E94A2010E94D0011A821982CC
:100AB000A0C089819A81880F991F9E012F5F3F4FA7
:100AC000820F931F0996FC0180819181FC01258191
:100AD00036814781508589819A81880F991FBE018F
:100AE0006F5F7F4F860F971F0996FC018081918170
:100AF000FC0181819281A381B481281739074A07BB
:100B00005B0709F045C089819A81880F991F9E0172
:100B10002F5F3F4F820F931F0996FC0100811181C7
:100B200089819A81880F991F9E012F5F3F4F820F05
:100B3000931F0996FC0180819181FC0121853285FA
:100B400089819A81880F991FAE014F5F5F4F840F93
:100B5000951F0996FC0180819181FC018081082EFE
:100B6000000C990BF9010995F801808389819A811C
:100B7000880F991F9E012F5F3F4F820F931F099689
:100B8000FC0180819181FC011582168217821086FA
:100B900089819A81880F991F9E012F5F3F4F820F95
:100BA000931F0996FC016081718189819A81880F68
:100BB000991F9E012F5F3F4F820F931F0996FC01E3
:100BC00080819181FC0125813681478150858B810F
:100BD0009C81AD81BE81820F931FA41FB51FFB01B5
:100BE00085839683A783B08789819A8101969A83AA
:100BF000898329813A818F8198852817390708F4DC
:100C000058CF0000809118018823E1F31092180159
:100C10004DCFA1E21A2EAA1BBB1BFD010DC0AA1FBE
:100C2000BB1FEE1FFF1FA217B307E407F50720F055
:100C3000A21BB30BE40BF50B661F771F881F991FD0
:100C40001A9469F760957095809590959B01AC0119
:0A0C5000BD01CF010895F894FFCF15
:100C5A000100000000000002000000008002000005
:080C6A000000440139012E01D4
:00000001FF
